:03000000020A21D0
:0C0A2100787FE4F6D8FD7581070208001C
:10080000E4F5A07F38120A051209F67F01120A05E5
:100810001209F67F10120A051209F67F0C120A055A
:100820001209F67FC0120A051209F67F80120A0526
:100830001209F67F0C120A051209F67F53120A13E9
:100840001209F67F41120A131209F67F48120A13A1
:100850001209F67F45120A131209F67F52120A1383
:100860001209F67F41120A131209F67F20120A13A9
:100870001209F67F42120A131209F67F49120A136F
:100880001209F67F42120A131209F67F49120A135F
:100890001209F67F20120A131209F67F4D120A136D
:1008A0001209F67F49120A131209F67F54120A132D
:1008B0001209F67F55120A131209F67F20120A1345
:1008C0001209F67F32120A131209F67F30120A1348
:1008D0001209F67F31120A131209F67F39120A1330
:1008E0001209F67F30120A131209F67F30120A132A
:1008F0001209F67F30120A131209F67F30120A131A
:100900001209F67F31120A131209F67F30120A1308
:100910001209F67F30120A131209F67F36120A13F3
:100920001209F67F35120A131209F67FC0120A0562
:100930001209F67F43120A131209F67F53120A13A3
:100940001209F67F45120A131209F67F20120A13C4
:100950001209F67F53120A131209F67F4F120A1377
:100960001209F67F55120A131209F67F54120A1360
:100970001209F67F48120A131209F67F45120A136C
:100980001209F67F41120A131209F67F53120A1355
:100990001209F67F54120A131209F67F20120A1365
:1009A0001209F67F55120A131209F67F4E120A1326
:1009B0001209F67F49120A131209F67F56120A131A
:1009C0001209F67F45120A131209F67F52120A1312
:1009D0001209F67F53120A131209F67F49120A13FD
:1009E0001209F67F54120A131209F67F59120A13DC
:0609F0001209F6020803E3
:0E0A05008FA0C2B0C2B1D2B21209F6C2B222A4
:0E0A13008FA0D2B0C2B1D2B21209F6C2B22286
:0E09F600E4FFFE0FBF00010EBE1BF8BF58F558
:010A040022CF
:00000001FF
